:0812D000121352120E9580FB6F
:03065600016D0033
:1010EB001212FB12136A12131212136B120FF1125C
:0610FB001307756D0122D0
:100E95001210291213168E108F11E56D70031210A2
:100EA500EBAF11AE10120C37120E6D12112D121080
:070EB50044120CB3020C759E
:040659000263000038
:0612FB00E4F563F5642236
:040C37008E128F1377
:100C3B00C3E5139564E5129563C3648094804029E2
:100C4B001213228F141213268E158F16AD16AC1598
:100C5B00AF141212DFAD16AC15AF14121271E513EF
:090C6B002464F564E43512F5631C
:010C7400225D
:01136A002260
:100E6D0012131A8F12E51264016005E512B43106F2
:100E7D0012135502134AE51264026005E512B432ED
:070E8D000612135512134E6B
:010E9400223B
:100EBC0041543234204255535900534156494E4700
:100ECC002E2E2E0052454144494E472E2E2E0053B5
:070EDC00415645204F4B0079
:03065D00016E002B
:04131200E4F56E226E
:100BB90012133EBF01087BFF7A0E79BC802D1213F8
:100BC900618F15120026AD07AC068515128C138DA1
:100BD900147B007A007912751A03E4FF1212D8EF18
:0E0BE900700C756E017BFF7A0E79C612100D2E
:010BF70022DB
:100F0A0012133EBF01087BFF7A0E79BC80137D0362
:100F1A00E4FF12133AEF700C756E027BFF7A0E79BA
:050F2A00D012100D22A1
:1009B500E56E6050121342EF64017048E56EB401B4
:1009C5000B7BFF7A0E79DB12100D8035E4FF1213D5
:1009D500468F127F01121346EF7F00FEC007C00647
:1009E5007F02121346EFFDD0E0F513D0E04DF5146C
:1009F500FDAC13AF12120016AD14AC13AF121212E8
:040A05007BE4F56E2B
:010A090022CA
:10112D0012120BBF0103120BB9121219BF010312D8
:05113D000F0A0209B5D4
:01136B00225F
:1010440012132ABF011212132E8F1212135BAF1246
:0810540012135EAF121212A389
:01105C002271
:0613010052454144590071
:06066000016501016601C5
:080D9100AE077B017A007941F5
:060D99008B1A8A1B891C65
:100D9F00E4FFAB1AAA1BA91C8F8275830074201263
:100DAF00026B0FBF10ECAB1AAA1BA91C900010E42A
:030DBF0002026BC2
:1008F0008B198A1A891B8D1CAF1D7E007C007D64BC
:1009000012028DEF2430851C8275830012026BAFBA
:100910001D7E007C007D0A12028D7C007D0A120281
:100920008DED2430FFE51C04AB19AA1AA91BF58232
:10093000758300EF12026BAF1D7E007C007D0A12F2
:10094000028DED2430FFE51C2402AB19AA1AA91B65
:09095000F582758300EF02026BD1
:1006F5008B198A1A891B8D1CAE1DAF1E7C037DE8E4
:1007050012028DEF2430851C8275830012026BE581
:100715001C04F582758300742E12026BAE1DAF1E8C
:100725007C007D6412028D7C007D0A12028DED2411
:1007350030FFE51C2402AB19AA1AA91BF5827583A3
:1007450000EF12026BAE1DAF1E7C007D0A12028DFA
:100755007C007D0A12028DED2430FFE51C2403ABDD
:1007650019AA1AA91BF582758300EF12026BE51C05
:0C0775002404F582758300745602026BA8
:1011B80053070FEFC3940AEF50042430FF2224375B
:0211C800FF2204
:100AF7008C178D18AE077B017A007930120D99900B
:100B070000307441F0A37444F0A314F0A3743AF0D6
:100B17007B017A0079308E1D7D041208F07B017A03
:100B270000793085171D85181E7D081206F5756535
:020B3700012299
:060DC2008B178A18891945
:100DC800120D93E4FFAB17AA18A9198F8275830037
:100DD80012022CFE601074412FF582E43400F58372
:090DE800EEF00FBF10DF7566018B
:010DF10022DF
:100BF8008C178D18120D919000417452F0A3744512
:100C0800F0A37441F0A37444F0A3743AF07B017A22
:100C18000079418E1D7D051208F07B017A0079412B
:0F0C280085171D85181E7D091206F575660122B8
:100B3900120D919000417449F0A37452F0A37420EE
:100B4900F0A3744BF0A37445F0A37459F0A3743A5D
:100B5900F0A37430F0A37478F0EEC4540FFF1211AF
:100B6900B8A3EFF0AF061211B8A3EFF07566012232
:100FF1007B017A007930120D99120D937BFF7A13E0
:0C1001007901120DC275650175660122AF
:10080D00751A00751B00751C147B007A0079131284
:10081D000F51BF0109AD15AC14AF13120AF7751ABC
:10082D0000751B00751C13751D00751E00751F14BA
:10083D00752000752100752216752301752400752C
:10084D0025A37B007A007912120AABEF64017026A2
:10085D00E512B401097B017A0079A3020DC2E512FC
:10086D00B40209AD15AC14AF13020BF8E512B403C5
:06087D0005AF16120B3955
:010883002252
:100CB30012080D121336EF6401602FE565B40113BA
:100CC3007B017A0079307D017F01121332EF701AB4
:100CD300F56522E566B401127B017A0079417D0155
:0B0CE3007F02121332EF7002F5662250
:06066600016700016800BD
:06130700E4F567F5682221
:0603FC008F15AB05AA04F9
:100402007F20900052E4F0A3DFFC9000527452F07F
:10041200A37445F0A37441F0A37444F0A37420F0D4
:10042200A37441F0A37444F0A314F0A3743DF0AF9D
:10043200157E007C007D6412028DEF2430A3F0AFA4
:10044200157E007C007D0A12028D7C007D0A12025C
:100452008DED2430A3F0AF157E007C007D0A1202E0
:100462008DED2430A3F0A37420F0A3744DF0A37497
:1004720056F0A3743DF07C037DE8AF03AE02120296
:100482008DEF2430A3F07C007D64AF03AE02120234
:100492008D7C007D0A12028DED2430A3F07C007D5C
:1004A2000AAF03AE0212028D7C007D0A12028DEDAC
:1004B2002430A3F0AE02AF037C007D0A12028DED60
:1004C2002430A3F0A3740DF0A3740AF0756716E448
:0204D200F568CB
:0104D4002205
:100C7500751800751900751A137B007A0079121220
:100C85000F72BF0109AD14AC13AF121203FCE56876
:100C9500C39567501812131EBF011274522568F5CB
:0D0CA50082E43400F583E0FF121358056867
:010CB200221F
:0313520002114243
:101101008E568F578D538B59851A580555E5557055
:061111000205547F0022DC
:10066C0001340002390000012D00013E000135006B
:10067C00012F0002320000013D000136000138005C
:10068C00023B0000013700012C00012E000230005B
:01069C00005D
:060CEE008B268A278928ED
:100CF400E4FFAB29AA2AA92B8F8275830012022C48
:100D04006012AB26AA27A9288F8275830012026B72
:100D14000FBF10DEAB26AA27A9288F82758300E4B3
:030D240002026B5D
:101142001212F41212ED120EE312130D120D2712E7
:0511520012C702107637
:1010290012117F8E128F131204D5AF13AE12120054
:0B1039002EAF13AE12120A5D020F2F43
:0413160012117F220F
:04131A001210BD22CE
:0313550002116B17
:0313580002108EF2
:04131E001210D422B3
:041322001210A622DD
:0413260012119222EC
:04132A001213672211
:04132E001211FC227A
:03135B000200038A
:03135E00020FB3C8
:0413320012088422F7
:041336001212BE22AF
:0712D800851A1F120A0A2209
:04133A00120E442229
:04133E001212352230
:0413420012126622FB
:041346001211172247
:0712DF008F348C398D3A2297
:03136100AF342284
:05002600AE39AF3A22E3
:04134A00752D0122DA
:04134E00753E0122C5
:0E120B00E52DB40106E4F52D7F01227F0022BF
:0E121900E53EB40106E4F53E7F01227F00228F
:0A1271008F2F8C328D33753501226A
:100F5100E535B40119E52F120259AB1AAA1BA91CD8
:100F6100E5328533F01202E2E4F5357F01227F009C
:010F7100225D
:10100D008B168A1789188B298A2A892B7B017A00DE
:0C101D007992120CEE753601753D01222F
:0D0016008F388C3B8D3C753602753D012204
:0912A3008F37753603753D0122F9
:100AAB00E53D64017043E536120259AB1AAA1BA946
:100ABB001CE538120259AB1DAA1EA91FE53B853C4C
:100ACB00F01202E2AB20AA21A922E53712025975D6
:100ADB002901752A00752B92AB23AA24A925120C88
:0C0AEB00EEE4F536F53D7F01227F00228D
:0A127B008F2E8C308D31752C01226E
:100F7200E52CB40119E52E120259AB18AA19A91AC7
:100F8200E5308531F01202E2E4F52C7F01227F0088
:010F9200223C
:0912AC00A2AFE433F56FC2AF22DA
:0712E600E56F24FF92AF2227
:04069D0002690000EE
:1010760075CC6775CA6775CDFC75CBFCE4F569F56B
:081086006AD2CAD2ADD2AF223A
:10117F00A2AFE433C2AFAB6AAA6924FF92AFAE024B
:02118F00AF03AC
:01119100223B
:03002B000211EDD2
:0F11ED00C0E0C2CF056AE56A70020569D0E03242
:0300000002078173
:0C078100787FE4F6D8FD7581700207C88F
:100FD300D3EF9400EE940040147D737C00ED1D70FC
:0D0FE300011CED4C70F7EF1F70E61E80E35F
:010FF00022DE
:10115700BF01038D9022751A147B03E4FD7F78FE8F
:04116700121101223E
:100F9300BF1706ED24FF92A322BF1906ED24FF928B
:100FA300A522751A0A7B01E4FD7F78FE1211012246
:0306A100016C00E9
:10105D0075985053877FD2AC758920758BFD758D32
:09106D00FDE4F56CD28ED2AF2235
:0B1243001212AC856B131212E6AF1301
:01124E00227D
:0912B5001212ACE4F56B0212E622
:0A128500E56C7005756C018F99226D
:0A128F00E56C70037F01227F00224E
:030023000211DCEB
:1011DC00309805C29885996B309905C299756C0049
:0111EC0032D0
:0712ED00D2A7C287C2A722AD
:1010A600D2B600C2B600D2B600D2B7007590FFC263
:0610B600B700AF90D2B7B5
:0110BC002211
:101192007E007C127DF21203CFE47BFFFAF9F81293
:0311A200033D22E8
:0F06A400015E00015D00015C00015A00015B0076
:0A129900D2A000D2A100E4F55E220D
:100959008F168D17121227BF01037F012285175D9C
:10096900E4F55CF55AF55BE516B40105755E0280A0
:1009790038E516B40205755E05802EE516B4030543
:10098900755E088024E516B40405755E09801AE5CC
:1009990016B40505755E0B8010E516B40605755E7F
:0C09A9000D8006E4F55E7F01227F002235
:1004D500E55E24FEB40D0040030205A89004EF7507
:1004E500F003A4C58325F0C5837302051602051E16
:1004F50002052402052602052C02053202053402F6
:10050500054502055702057202057A02059902059D
:10051500A1D2A0D2A1755E0322C2A0755E0422807D
:100525006BC2A0755E0622D2A1755E07228036D207
:10053500A130A007E55BC394FA4002804F055B221A
:10054500C2A1E55D54806004D2A08002C2A0755EA0
:100555000A22D2A1E55D25E0F55D055AE55AC39469
:10056500084006C2A1D2A08037755E0922C2A1D279
:10057500A0755E0C22D2A1E55C25E0FFA2A0E433C4
:100585004FF55C055AE55AC394084004C2A1801092
:10059500755E0B22C2A1D2A0755E0E22D2A1C2A1A8
:0405A500755E01225C
:0E122700E55E6007640160037F01227F002204
:0B125B00E55EB401037F01227F00224A
:03136400AF5C2259
:1006B300044000000000014A000147000148000116
:0E06C3004900014500014600014400013F00CE
:100DF200E54604FDC394104002E4FDEDB5440475DC
:100E02003F0122AC46EC25E02472F582E43400F581
:080E120083EEF0A3EFF08D4622
:010E1A0022B5
:100B7900A2AFE433FFC2AFE544B54608EF24FF92C4
:100B8900AF7F0122AE44EE25E02472F582E4340001
:100B9900F583E0FDA3E0CD8DF01202E20544E544C2
:0F0BA900C394104003E4F544EF24FF92AF7F00A4
:010BB800221A
:1005A900D3EF9428EE94234017EF94B0EE9436508D
:1005B9000FE4F54A754701F540F541F542F5432247
:1005C900E54764016003020655D3EF94AAEE94054A
:1005D9004036EF94B8EE940B502EAF4A7E00EF7878
:1005E90003CEC313CE13D8F92440F8E6C3134480CD
:1005F900FDAF4A7E00EF7803CEC313CE13D8F9249A
:1006090040F8A605054A802CD3EF94BCEE9402402D
:1006190023EF94AAEE9405501BAF4A7E00EF7803AE
:10062900CEC313CE13D8F92440F8C000E6C313D0C3
:1006390000F6054AE54AC394204011E4F54AF54716
:0D064900E543F4B54206854249754801229B
:100EE300E4F54AF547F548F549F545F546F544F582
:100EF3003FD28AD2AAE58954F04401F589E4F58CFE
:070F0300F58AD28CD2AF2267
:100F2F00E53FB40107E4F53FF547F54A7B007A004A
:100F3F007914120B79EF7009AF15AE141205A98051
:010F4F00EBB6
:010F5000227E
:03136700AF48226A
:0E11FC00A2AFE433C2AFAE4924FF92AFAF06FC
:01120A0022C1
:0F000300A2AFE433FFC2AFE4F548EF24FF92AFA2
:0100120022CB
:03001300020D5D7E
:0B0D5D00C0E0C083C082C0D075D00889
:100D6800AF8CEFFEAD8A7C00E42DFFEC3EFE758C67
:100D780000758A00E54570057545018003120DF27E
:090D8800D0D0D082D083D0E0323B
:0306D100017000B5
:0712F40012105D757001226C
:1010BD00E570700F751A017B02FD7FCBFE121101D9
:0710CD007F002212124322F2
:10116B00E570700C751A017B03FD7FCBFE0211013C
:04117B001212B52275
:10108E008F15E570700C751A017B04FD7FCBFE0287
:08109E001101AF1512128522A9
:1010D400E570700F751A017B04FD7FCBFE121101C0
:0710E4007F002212128F228F
:0A06D400015F0001600002610000F8
:1011A500C2B4EF7004C2B58002D2B58D80D2B4004E
:0311B500C2B4229F
:100E1B00E55FC3941840037F01227418255FF582A8
:100E2B00E43400F583EFF07400255FF582E43400C1
:090E3B00F583EDF0055F7F002254
:0C124F00EDBF0104247FFF2224BFFF221A
:1011CA00C2B4C2B58F80D2B47F017E00120FD3C2DF
:0211DA00B4223D
:100D27007F381211CA7F287E00120FD37F0C121151
:100D3700CA7F287E00120FD37F061211CA7F287E32
:100D470000120FD37F011211CA7F287E00120FD322
:060D5700E4F55FF56022E7
:0A0884008F128D138B148A1589164C
:10088E00E51264016005E512B4020EE513C394018E
:10089E004007E513D3942840037F01221212BEBFF6
:1008AE0001037F0122E4F55FF560AD13AF12121262
:1008BE004FAD07E4FF120E1BEF60037F0122E4FE33
:1008CE00AB14AA15A9168E8275830012022CFD6038
:1008DE000E7F01120E1BEF60037F01220E80E17F5F
:0108EE000009
:0108EF0022E6
:100A5D00AB07AA06E560C3955F5042C3EB9562EA0A
:100A6D009561C364809480403474182560F582E4E8
:100A7D003400F583E0FF74002560F582E43400F561
:100A8D0083E0FD1211A50560EB2401F562E43AF552
:0E0A9D0061E560C3955F4005E4F55FF56022FA
:0912BE00E55F7002FF227F0122AE
:1006DE00014E00015000014B00014C00014D000184
:0606EE004F000251000064
:0912C700121299E4F54EF55022D3
:080A0A008F1B8B1C8A1D891E45
:100A1200121235EF64016009E51F6005D3940840A6
:100A2200037F0122E4FFEFC3951F501EAB1CAA1DDA
:100A3200A91E8F8275830012022CFE74B42FF582D8
:100A4200E43400F583EEF00F80DC851B4B851F4CF0
:0A0A5200E4F54D755001754E01FFEB
:010A5C002277
:100E44008F128D13121235EF64016009E5136005EA
:100E5400D3940840037F012285124B85134CE4F59B
:090E64004D755002754E01FF228C
:10002E008E148F15E54E14B41600400302022B9069
:10003E00004B75F003A4C58325F0C5837302008DB4
:10004E0002009E0200AD0200BE0200CF0200E002DE
:10005E0000EF02010302011D0201390201570201E4
:10006E006802017702018802019A0201AB0201E3E4
:10007E000201F102021802022B0201C90201D7E4A9
:10008E00FD7F01120959EF600302022B754E022209
:10009E0012125BEF6401600302022B754E03227D88
:1000AE00A07F04120959EF600302022B754E042241
:1000BE0012125BEF6401600302022B754F070201FF
:1000CE0096E4FD7F03120959EF600302022B754E71
:1000DE00062212125BEF6401600302022B854F4E63
:1000EE0022E54B254DFD7F04120959EF60030202F4
:1000FE002B754E082212125BEF6401600302022B75
:10010E00E550B40105754F098003754F0B80797466
:10011E00B4254DF582E43400F583E0FD7F04120929
:10012E0059EF600302022B754E0A2212125BEF6426
:10013E0001600302022B054DE54DC3954C4005753C
:10014E004F118003754F09803FE4FD7F011209595D
:10015E00EF600302022B754E0C2212125BEF64014C
:10016E00600302022B754E0D227DA17F04120959E8
:10017E00EF600302022B754E0E2212125BEF64012A
:10018E00600302022B754F0F754E0522E4FD7F05AD
:10019E00120959EF600302022B754E102212125BE8
:1001AE00EF6401707812136474B4254DF582E43453
:1001BE0000F583EFF0054D754E1522E4FD7F061216
:1001CE000959EF7058754E162212125BEF640170CA
:1001DE004C754E1122E4FD7F02120959EF703E75E7
:1001EE004E122212125BEF64017032E550B4010F11
:1001FE00E5152405F552E43514F551754E1322E537
:10020E004DC3954C5014754E0122C3E5159552E51C
:0E021E00149551C3648094804003754E1422E1
:0E123500E54E6007641460037F01227F0022F3
:0B126600E54EB414037F01227F00223C
:10111700EFC3940840037F002274B42FF582E434B0
:0611270000F583E0FF2249
:05130D00E4FF020FB334
:100FB300EFF4F5137D017F19120F93AD137F011227
:100FC3001157E4FD7F19120F937DFF7F0102115723
:10078D000212D0E493A3F8E493A34003F68001F2A0
:10079D0008DFF48029E493A3F85407240CC8C3336D
:1007AD00C4540F4420C8834004F456800146F6DF3C
:1007BD00E4800B0102040810204080900656E47E70
:1007CD00019360BCA3FF543F30E509541FFEE49331
:1007DD00A360010ECF54C025E060A840B8E493A3F8
:1007ED00FAE493A3F8E493A3C8C582C8CAC583CA23
:1007FD00F0A3C8C582C8CAC583CADFE9DEE780BEDB
:0106F4000005
:10022C00BB010CE58229F582E5833AF583E0225087
:10023C0006E92582F8E622BBFE06E92582F8E222D1
:0D024C00E58229F582E5833AF583E49322EB
:10025900BB010689828A83F0225002F722BBFE0184
:02026900F3227E
:10026B00F8BB010DE58229F582E5833AF583E8F0C9
:10027B00225006E92582C8F622BBFE05E92582C875
:02028B00F2225D
:10028D00BC000BBE0029EF8DF084FFADF022E4CC55
:10029D00F875F008EF2FFFEE33FEEC33FCEE9DEC1E
:1002AD00984005FCEE9DFE0FD5F0E9E4CEFD22ED64
:1002BD00F8F5F0EE8420D21CFEADF075F008EF2FAE
:1002CD00FFED33FD4007985006D5F0F222C398FD9F
:0502DD000FD5F0EA223C
:1002E200BB010A89828A83F0E5F0A3F0225006F767
:0F02F20009A7F01922BBFE06F3E5F009F3192264
:1003010075F008758200EF2FFFEE33FECD33CDCCB3
:1003110033CCC58233C5829BED9AEC99E582984036
:100321000CF582EE9BFEED9AFDEC99FC0FD5F0D613
:10033100E4CEFBE4CDFAE4CCF9A88222B800C1B93D
:100341000059BA002DEC8BF084CFCECDFCE5F0CB7B
:10035100F97818EF2FFFEE33FEED33FDEC33FCEBB4
:1003610033FB10D703994004EB99FB0FD8E5E4F96F
:10037100FA227818EF2FFFEE33FEED33FDEC33FC5C
:10038100C933C910D7059BE99A4007EC9BFCE99A50
:10039100F90FD8E0E4C9FAE4CCFB2275F010EF2F95
:1003A100FFEE33FEED33FDCC33CCC833C810D70795
:1003B1009BEC9AE899400AED9BFDEC9AFCE899F8D0
:0E03C1000FD5F0DAE4CDFBE4CCFAE4C8F92263
:1003CF00EC8EF0A4CCC5F0CCCDF8EFA4CEC5F02DBB
:1003DF00FDE43CFCE8A42EC8C5F03DFDE43CFCEF79
:0D03EF00A4FFE5F028FEE43DFDE43CFC2207
:00000001FF
