:081098001210F0120D5480FB50
:100CAC00524541445900534156494E472E2E2E0071
:100CBC004154323420425553590052454144494E17
:0D0CCC00472E2E2E0053415645204F4B0061
:1007D70002310000012C00022E000001300001331D
:0D07E70000013501013601012D0001340033
:080C4B00AE077B017A0079314C
:060C53008B198A1A891BAF
:100C5900E4FFAB19AA1AA91B8F82758300742012AD
:100C690002590FBF10ECAB19AA1AA91B900010E486
:030C79000202591B
:100E24007B017A007920120C53120C4D7BFF7A0C53
:0F0E340079AC120C7C75350175360175330122CE
:1008B8008B178A1889198D1AAF1B7E007C007D64FE
:1008C80012027BEF2430851A82758300120259AF19
:1008D8001B7E007C007D0A12027B7C007D0A1202CE
:1008E8007BED2430FFE51A04AB17AA18A919F58285
:1008F800758300EF120259AF1B7E007C007D0A123F
:10090800027BED2430FFE51A2402AB17AA18A919B7
:09091800F582758300EF0202591B
:100644008B178A1889198D1AAE1BAF1C7C037DE8A1
:1006540012027BEF2430851A82758300120259E559
:100664001A04F582758300742E120259AE1BAF1C56
:100674007C007D6412027B7C007D0A12027BED24E7
:1006840030FFE51A2402AB17AA18A919F58275835D
:1006940000EF120259AE1BAF1C7C007D0A12027BD4
:1006A4007C007D0A12027BED2430FFE51A2403ABA3
:1006B40017AA18A919F582758300EF120259E51AD1
:0C06C4002404F58275830074560202596C
:100FC50053070FEFC3940AEF50042430FF22243750
:020FD500FF22F9
:100A73008C148D15AE077B017A007920120C5390EC
:100A830000207441F0A37444F0A314F0A3743AF06B
:100A93007B017A0079208E1B7D041208B87B017AD2
:100AA30000792085141B85151C7D081206447535B5
:020AB30001221E
:060C7C008B168A1789188F
:100C8200120C4DE4FFAB16AA17A9188F82758300C8
:100C920012022CFE601074312FF582E43400F583C9
:090CA200EEF00FBF10DF75360102
:010CAB002226
:100B35008C158D16120C4B9000317452F0A3744530
:100B4500F0A37441F0A37444F0A3743AF07B017AE6
:100B55000079318E1B7D051208B87B017A00793149
:0F0B650085151B85161C7D091206447536012265
:100AB500120C4B9000317449F0A37452F0A37420CA
:100AC500F0A3744BF0A37445F0A37459F0A3743AE2
:100AD500F0A37430F0A37478F0EEC4540FFF120F36
:100AE500C5A3EFF0AF06120FC5A3EFF075360122CF
:0603EA008F15AB05AA040B
:1003F0007F20900000E4F0A3DFFC9000007452F036
:10040000A37445F0A37441F0A37444F0A37420F0E6
:10041000A37441F0A37444F0A314F0A3743DF0AFAF
:10042000157E007C007D6412027BEF2430A3F0AFC8
:10043000157E007C007D0A12027B7C007D0A120280
:100440007BED2430A3F0AF157E007C007D0A120204
:100450007BED2430A3F0A37420F0A3744DF0A374BB
:1004600056F0A3743DF07C037DE8AF03AE021202A8
:100470007BEF2430A3F07C007D64AF03AE02120258
:100480007B7C007D0A12027BED2430A3F07C007D92
:100490000AAF03AE0212027B7C007D0A12027BEDE2
:1004A0002430A3F0AE02AF037C007D0A12027BED84
:1004B0002430A3F0A3740DF0A3740AF0752D16E494
:0204C000F53411
:0104C2002217
:100DC400E534C3952D50181210C4BF0112740025C8
:100DD40034F582E43400F583E0FF1210F605342282
:100BE2008E128F13C3E5139532E5129531C36480DB
:100BF200948040201210C88F2C1210CC8E2E8F2F72
:100C0200AD2FAC2EAF2C120A73E5132464F532E437
:050C12003512F531224E
:10075C001210C08F12E51264016006E5126431704C
:10076C00371210F31210E4EF7026852C13E52EF5DA
:10077C0014852F157B007A007913751A03E4FF1288
:10078C0010A0EF70457530017BFF7A0C79B2803781
:10079C007BFF7A0C79BC802FE51264026006E512AF
:1007AC00643270261210F31210E4EF70147D03FF04
:1007BC001210E0EF70147530027BFF7A0C79C68052
:0A07CC00067BFF7A0C79BC120C7C4E
:0107D6002200
:10097D00E53060501210E8EF64017048E530B401C5
:10098D000B7BFF7A0C79D1120C7C8035E4FF1210B1
:10099D00EC8F127F011210ECEF7F00FEC007C00636
:1009AD007F021210ECEFFDD0E0F513D0E04DF51401
:1009BD00FDAC13AF12120B35AD14AC13AF12120305
:0409CD00EAE4F53033
:0109D1002203
:100E7C001210D0BF01121210D48F121210F9AF122F
:080E8C001210FCAF12120AB5AE
:010E9400223B
:100B74001210DCEF6401602FE535B401137B017AB8
:100B84000079207D017F011210D8EF701AF535220B
:100B9400E536B401127B017A0079317D017F0212BE
:080BA40010D8EF7002F53622B3
:100D5400120E611210BC8E108F11E5337003120E47
:100D640024AF11AE10120BE212075C12097D120EB1
:070D74007C120B74020DC498
:0310F000020F4F9D
:100F23008E428F438D3F8B45851A440541E54170C1
:060F33000205407F0022D0
:100F4F001210B51210AE120D7B120026120BAC123E
:050F5F00108F020EAE30
:100E6100120F8C8E128F131204C3AF13AE12120025
:0B0E71002EAF13AE12120A25020DA2D4
:0410BC00120F8C2261
:0410C000120EF522F5
:0310F300020F7871
:0310F600020EC621
:0410C400120F0C22D9
:0410C800120EDE2204
:0410CC00120F9F223E
:0410D00012110222D5
:0410D40012100922CB
:0310F900020003EF
:0310FC00020E04DD
:0410D80012084C228C
:0410DC001210862246
:0710A000851A1F1209D2227C
:0410E000120D2B22A0
:0410E400121026229E
:0410E80012104B2275
:0410EC00120F392284
:09107400A2AFE433F553C2AF2230
:0710A700E55324FF92AF2284
:0407F400024F0000B0
:100EAE0075CC6775CA6775CDFC75CBFCE4F54FF54F
:080EBE0050D2CAD2ADD2AF221E
:100F8C00A2AFE433C2AFAB50AA4F24FF92AFAE0274
:020F9C00AF03A1
:010F9E002230
:03002B00020FFAC7
:0F0FFA00C0E0C2CF0550E5507002054FD0E03285
:030000000206D025
:0C06D000787FE4F6D8FD7581540207170E
:100E4300D3EF9400EE940040147D737C00ED1D708D
:0D0E5300011CED4C70F7EF1F70E61E80E3F0
:010E6000226F
:100F6400BF01038D9022751A147B03E4FD7F78FE84
:040F7400120F232213
:100DE400BF1706ED24FF92A322BF1906ED24FF923C
:100DF400A522751A0A7B01E4FD7F78FE120F2322D7
:0307F800015200AB
:100E950075985053877FD2AC758920758BFD758DFC
:090EA500FDE4F552D28ED2AF2219
:0B0016001210748551161210A7AF16CF
:0100210022BC
:09107D00121074E4F5510210A7F1
:0A105600E55270057552018F9922D2
:0A106000E55270037F01227F002299
:03002300020FE9E0
:100FE900309805C298859951309905C29975520072
:010FF90032C5
:0710AE00D2A7C287C2A722EE
:100EDE00D2B600C2B600D2B600D2B7007590FFC22D
:060EEE00B700AF90D2B77F
:010EF40022DB
:100F9F007E007C127DF21203BDE47BFFFAF9F8129A
:030FAF00032B22EF
:0F07FB00014A0001490001480001460001470082
:0A106A00D2A000D2A100E4F54A2252
:100921008F168D17121018BF01037F0122851749F9
:10093100E4F548F546F547E516B40105754A028028
:1009410038E516B40205754A05802EE516B403058F
:10095100754A088024E516B40405754A09801AE52C
:1009610016B40505754A0B8010E516B40605754ADF
:0C0971000D8006E4F54A7F01227F002281
:1004C300E54A24FEB40D0040030205969004DD7551
:1004D300F003A4C58325F0C5837302050402050C4C
:1004E30002051202051402051A0205200205220262
:1004F300053302054502056002056802058702050A
:100503008FD2A0D2A1754A0322C2A0754A042280C9
:100513006BC2A0754A0622D2A1754A07228036D241
:10052300A130A007E547C394FA4002804F05472254
:10053300C2A1E54954806004D2A08002C2A0754ADA
:100543000A22D2A1E54925E0F5490546E546C394CB
:10055300084006C2A1D2A08037754A0922C2A1D29F
:10056300A0754A0C22D2A1E54825E0FFA2A0E433FE
:100573004FF5480546E546C394084004C2A18010E0
:10058300754A0B22C2A1D2A0754A0E22D2A1C2A1E2
:04059300754A012282
:0E101800E54A6007640160037F01227F002229
:0B104000E54AB401037F01227F00227B
:0310FF00AF4822D5
:10080A00042100000000012B000128000129000139
:0E081A002A0001260001270001250001200010
:100CD900E52704FDC394104002E4FDEDB525047534
:100CE900200122AC27EC25E02472F582E43400F5DA
:080CF90083EEF0A3EFF08D275C
:010D010022CF
:100AF500A2AFE433FFC2AFE525B52708EF24FF9287
:100B0500AF7F0122AE25EE25E02472F582E43400A4
:100B1500F583E0FDA3E0CD8DF01202D00525E52596
:0F0B2500C394104003E4F525EF24FF92AF7F0047
:010B3400229E
:10059700D3EF9428EE94234017EF94B0EE9436509F
:1005A7000FE4F52B752801F521F522F523F5242213
:1005B700E52864016003020643D3EF94AAEE94058D
:1005C7004036EF94B8EE940B502EAF2B7E00EF78A9
:1005D70003CEC313CE13D8F92421F8E6C3134480FE
:1005E700FDAF2B7E00EF7803CEC313CE13D8F924CB
:1005F70021F8A605052B802CD3EF94BCEE9402407E
:1006070023EF94AAEE9405501BAF2B7E00EF7803DF
:10061700CEC313CE13D8F92421F8C000E6C313D0F4
:1006270000F6052BE52BC394204011E4F52BF528A4
:0D063700E524F4B5230685232A7529012248
:100D7B00E4F52BF528F529F52AF526F527F525F5C4
:100D8B0020D28AD2AAE58954F04401F589E4F58C86
:070D9B00F58AD28CD2AF22D1
:100DA200E520B40107E4F520F528F52B7B007A0055
:100DB2007914120AF5EF7009AF15AE141205978077
:010DC200EB45
:010DC300220D
:03110200AF2922F0
:0E100900A2AFE433C2AFAE2A24FF92AFAF060F
:0110170022B6
:0F000300A2AFE433FFC2AFE4F529EF24FF92AFC1
:0100120022CB
:03001300020C17C5
:0B0C1700C0E0C083C082C0D075D008D0
:100C2200AF8CEFFEAD8A7C00E42DFFEC3EFE758CAE
:100C320000758A00E52670057526018003120CD91D
:090C4200D0D0D082D083D0E03282
:0308280001540078
:0710B500120E957554012293
:100EF500E554700F751A017B02FD7FCBFE120F239F
:070F05007F002212001622FA
:100F7800E554700C751A017B03FD7FCBFE020F232D
:040F880012107D22A4
:100EC6008F12E554700C751A017B04FD7FCBFE0270
:080ED6000F23AF121210562287
:100F0C00E554700F751A017B04FD7FCBFE120F2385
:070F1C007F00221210602289
:0A082B00014B00014C00024D0000DB
:100FB200C2B4EF7004C2B58002D2B58D80D2B40043
:030FC200C2B42294
:100D0200E54BC3941840037F0122745A254BF582A8
:100D1200E43400F583EFF07442254BF582E43400AD
:090D2200F583EDF0054B7F002282
:0C103400EDBF0104247FFF2224BFFF2237
:100FD700C2B4C2B58F80D2B47F017E00120E43C265
:020FE700B42232
:100BAC007F38120FD77F287E00120E437F0C120F56
:100BBC00D77F287E00120E437F06120FD77F287E28
:100BCC0000120E437F01120FD77F287E00120E43B6
:060BDC00E4F54BF54C228C
:0A084C008F128D138B148A15891684
:10085600E51264016005E512B4020EE513C39401C6
:100866004007E513D3942840037F0122121086BF68
:1008760001037F0122E4F54BF54CAD13AF121210C4
:1008860034AD07E4FF120D02EF60037F0122E4FEA0
:10089600AB14AA15A9168E8275830012022CFD6070
:1008A6000E7F01120D02EF60037F01220E80E17FB1
:0108B6000041
:0108B700221E
:100A2500AB07AA06E54CC3954B5042C3EB954EEA7E
:100A3500954DC3648094804034745A254CF582E406
:100A45003400F583E0FF7442254CF582E43400F56B
:100A550083E0FD120FB2054CEB2401F54EE43AF5A7
:0E0A65004DE54CC3954B4005E4F54BF54C2296
:09108600E54B7002FF227F0122FC
:10083500013A00013C00013700013800013900018F
:060845003B00023D000033
:09108F0012106AE4F53AF53C2266
:0809D2008F1B8B1C8A1D891E7E
:1009DA00121026EF64016009E51F6005D3940840F0
:1009EA00037F0122E4FFEFC3951F501EAB1CAA1D13
:1009FA00A91E8F8275830012022CFE74922FF58233
:100A0A00E43400F583EEF00F80DC851B37851F3850
:0A0A1A00E4F539753C01753A01FF5F
:010A240022AF
:100D2B008F168D17121026EF64016009E517600509
:100D3B00D3940840037F0122851637851738E4F5D5
:090D4B0039753C02753A01FF22E2
:10002E008E148F15E53A14B41600400302022B907D
:10003E00004B75F003A4C58325F0C5837302008DB4
:10004E0002009E0200AD0200BE0200CF0200E002DE
:10005E0000EF02010302011D0201390201570201E4
:10006E006802017702018802019A0201AB0201E3E4
:10007E000201F102021802022B0201C90201D7E4A9
:10008E00FD7F01120921EF600302022B753A022255
:10009E00121040EF6401600302022B753A03227DB9
:1000AE00A07F04120921EF600302022B753A04228D
:1000BE00121040EF6401600302022B753B07020130
:1000CE0096E4FD7F03120921EF600302022B753ABD
:1000DE000622121040EF6401600302022B853B3AA8
:1000EE0022E5372539FD7F04120921EF6003020254
:1000FE002B753A0822121040EF6401600302022BA6
:10010E00E53CB40105753B098003753B0B807974A2
:10011E00922539F582E43400F583E0FD7F0412095F
:10012E0021EF600302022B753A0A22121040EF648F
:10013E0001600302022B0539E539C3953840057578
:10014E003B118003753B09803FE4FD7F01120921BD
:10015E00EF600302022B753A0C22121040EF64017D
:10016E00600302022B753A0D227DA17F0412092134
:10017E00EF600302022B753A0E22121040EF64015B
:10018E00600302022B753B0F753A0522E4FD7F05D5
:10019E00120921EF600302022B753A102212104051
:1001AE00EF640170781210FF74922539F582E434F1
:1001BE0000F583EFF00539753A1522E4FD7F06123E
:1001CE000921EF7058753A1622121040EF64017033
:1001DE004C753A1122E4FD7F02120921EF703E7533
:1001EE003A1222121040EF64017032E53CB4010F56
:1001FE00E5152405F53EE43514F53D753A1322E573
:10020E0039C395385014753A0122C3E515953EE56C
:0E021E0014953DC3648094804003753A142209
:0E102600E53A6007641460037F01227F002218
:0B104B00E53AB414037F01227F00226D
:100F3900EFC3940840037F002274922FF582E434B2
:060F490000F583E0FF2229
:05002600E4FF020E04DE
:100E0400EFF4F5137D017F19120DE4AD137F011288
:100E14000F64E4FD7F19120DE47DFF7F01020F646E
:1006DC00021098E493A3F8E493A34003F68001F28C
:1006EC0008DFF48029E493A3F85407240CC8C3331F
:1006FC00C4540F4420C8834004F456800146F6DFEE
:10070C00E4800B01020408102040809007D7E47E9F
:10071C00019360BCA3FF543F30E509541FFEE493E2
:10072C00A360010ECF54C025E060A840B8E493A3A9
:10073C00FAE493A3F8E493A3C8C582C8CAC583CAD4
:10074C00F0A3C8C582C8CAC583CADFE9DEE780BE8C
:01084B0000AC
:10022C00BB010CE58229F582E5833AF583E0225087
:10023C0006E92582F8E622BBFE06E92582F8E222D1
:0D024C00E58229F582E5833AF583E49322EB
:10025900F8BB010DE58229F582E5833AF583E8F0DB
:10026900225006E92582C8F622BBFE05E92582C887
:02027900F2226F
:10027B00BC000BBE0029EF8DF084FFADF022E4CC67
:10028B00F875F008EF2FFFEE33FEEC33FCEE9DEC30
:10029B00984005FCEE9DFE0FD5F0E9E4CEFD22ED76
:1002AB00F8F5F0EE8420D21CFEADF075F008EF2FC0
:1002BB00FFED33FD4007985006D5F0F222C398FDB1
:0502CB000FD5F0EA224E
:1002D000BB010A89828A83F0E5F0A3F0225006F779
:0F02E00009A7F01922BBFE06F3E5F009F3192276
:1002EF0075F008758200EF2FFFEE33FECD33CDCCC6
:1002FF0033CCC58233C5829BED9AEC99E582984049
:10030F000CF582EE9BFEED9AFDEC99FC0FD5F0D625
:10031F00E4CEFBE4CDFAE4CCF9A88222B800C1B94F
:10032F000059BA002DEC8BF084CFCECDFCE5F0CB8D
:10033F00F97818EF2FFFEE33FEED33FDEC33FCEBC6
:10034F0033FB10D703994004EB99FB0FD8E5E4F981
:10035F00FA227818EF2FFFEE33FEED33FDEC33FC6E
:10036F00C933C910D7059BE99A4007EC9BFCE99A62
:10037F00F90FD8E0E4C9FAE4CCFB2275F010EF2FA7
:10038F00FFEE33FEED33FDCC33CCC833C810D707A7
:10039F009BEC9AE899400AED9BFDEC9AFCE899F8E2
:0E03AF000FD5F0DAE4CDFBE4CCFAE4C8F92275
:1003BD00EC8EF0A4CCC5F0CCCDF8EFA4CEC5F02DCD
:1003CD00FDE43CFCE8A42EC8C5F03DFDE43CFCEF8B
:0D03DD00A4FFE5F028FEE43DFDE43CFC2219
:00000001FF
